{
  "_format": "hh-sol-artifact-1",
  "contractName": "CrowdFunding",
  "sourceName": "contracts/Crowdfunding.sol",
  "abi": [
    {
      "inputs": [
        {
          "internalType": "uint256",
          "name": "",
          "type": "uint256"
        }
      ],
      "name": "campaigns",
      "outputs": [
        {
          "internalType": "address",
          "name": "owner",
          "type": "address"
        },
        {
          "internalType": "string",
          "name": "title",
          "type": "string"
        },
        {
          "internalType": "string",
          "name": "description",
          "type": "string"
        },
        {
          "internalType": "uint256",
          "name": "target",
          "type": "uint256"
        },
        {
          "internalType": "uint256",
          "name": "deadline",
          "type": "uint256"
        },
        {
          "internalType": "uint256",
          "name": "amountCollected",
          "type": "uint256"
        },
        {
          "internalType": "string",
          "name": "image",
          "type": "string"
        },
        {
          "internalType": "enum CrowdFunding.CampaignStatus",
          "name": "status",
          "type": "uint8"
        }
      ],
      "stateMutability": "view",
      "type": "function"
    },
    {
      "inputs": [
        {
          "internalType": "address",
          "name": "_owner",
          "type": "address"
        },
        {
          "internalType": "string",
          "name": "_title",
          "type": "string"
        },
        {
          "internalType": "string",
          "name": "_description",
          "type": "string"
        },
        {
          "internalType": "uint256",
          "name": "_target",
          "type": "uint256"
        },
        {
          "internalType": "uint256",
          "name": "_deadline",
          "type": "uint256"
        },
        {
          "internalType": "string",
          "name": "_image",
          "type": "string"
        }
      ],
      "name": "createCampaign",
      "outputs": [
        {
          "internalType": "uint256",
          "name": "",
          "type": "uint256"
        }
      ],
      "stateMutability": "nonpayable",
      "type": "function"
    },
    {
      "inputs": [
        {
          "internalType": "uint256",
          "name": "_id",
          "type": "uint256"
        }
      ],
      "name": "donateToCampaign",
      "outputs": [],
      "stateMutability": "payable",
      "type": "function"
    },
    {
      "inputs": [],
      "name": "getCampaigns",
      "outputs": [
        {
          "components": [
            {
              "internalType": "address",
              "name": "owner",
              "type": "address"
            },
            {
              "internalType": "string",
              "name": "title",
              "type": "string"
            },
            {
              "internalType": "string",
              "name": "description",
              "type": "string"
            },
            {
              "internalType": "uint256",
              "name": "target",
              "type": "uint256"
            },
            {
              "internalType": "uint256",
              "name": "deadline",
              "type": "uint256"
            },
            {
              "internalType": "uint256",
              "name": "amountCollected",
              "type": "uint256"
            },
            {
              "internalType": "string",
              "name": "image",
              "type": "string"
            },
            {
              "internalType": "address[]",
              "name": "donators",
              "type": "address[]"
            },
            {
              "internalType": "uint256[]",
              "name": "donations",
              "type": "uint256[]"
            },
            {
              "internalType": "enum CrowdFunding.CampaignStatus",
              "name": "status",
              "type": "uint8"
            }
          ],
          "internalType": "struct CrowdFunding.Campaign[]",
          "name": "",
          "type": "tuple[]"
        }
      ],
      "stateMutability": "view",
      "type": "function"
    },
    {
      "inputs": [
        {
          "internalType": "uint256",
          "name": "_id",
          "type": "uint256"
        }
      ],
      "name": "getDonators",
      "outputs": [
        {
          "internalType": "address[]",
          "name": "",
          "type": "address[]"
        },
        {
          "internalType": "uint256[]",
          "name": "",
          "type": "uint256[]"
        }
      ],
      "stateMutability": "view",
      "type": "function"
    },
    {
      "inputs": [],
      "name": "numberOfCampaigns",
      "outputs": [
        {
          "internalType": "uint256",
          "name": "",
          "type": "uint256"
        }
      ],
      "stateMutability": "view",
      "type": "function"
    },
    {
      "inputs": [
        {
          "internalType": "uint256",
          "name": "_id",
          "type": "uint256"
        }
      ],
      "name": "refundDonors",
      "outputs": [],
      "stateMutability": "nonpayable",
      "type": "function"
    },
    {
      "inputs": [
        {
          "internalType": "uint256",
          "name": "_id",
          "type": "uint256"
        }
      ],
      "name": "reopenCampaingFromRefund",
      "outputs": [],
      "stateMutability": "nonpayable",
      "type": "function"
    },
    {
      "inputs": [
        {
          "internalType": "uint256",
          "name": "_id",
          "type": "uint256"
        }
      ],
      "name": "withdrawFunds",
      "outputs": [],
      "stateMutability": "nonpayable",
      "type": "function"
    },
    {
      "stateMutability": "payable",
      "type": "receive"
    }
  ],
  "bytecode": "0x6080604052600060015534801561001557600080fd5b50612a2f806100256000396000f3fe60806040526004361061008a5760003560e01c806342a4fda81161005957806342a4fda81461016c578063608bdc08146101885780639943e3a1146101b1578063a6b03633146101ee578063bfd869c21461021957610091565b806307ca140d146100965780630fa91fa9146100c1578063141961bc146100ff578063155dd5ee1461014357610091565b3661009157005b600080fd5b3480156100a257600080fd5b506100ab610242565b6040516100b8919061149a565b60405180910390f35b3480156100cd57600080fd5b506100e860048036038101906100e391906114f5565b610248565b6040516100f69291906116d0565b60405180910390f35b34801561010b57600080fd5b50610126600480360381019061012191906114f5565b610358565b60405161013a98979695949392919061181d565b60405180910390f35b34801561014f57600080fd5b5061016a600480360381019061016591906114f5565b610565565b005b610186600480360381019061018191906114f5565b6107e1565b005b34801561019457600080fd5b506101af60048036038101906101aa91906114f5565b610973565b005b3480156101bd57600080fd5b506101d860048036038101906101d39190611a11565b610bfc565b6040516101e5919061149a565b60405180910390f35b3480156101fa57600080fd5b50610203610d89565b6040516102109190611de1565b60405180910390f35b34801561022557600080fd5b50610240600480360381019061023b91906114f5565b61119a565b005b60015481565b606080600080848152602001908152602001600020600701600080858152602001908152602001600020600801818054806020026020016040519081016040528092919081815260200182805480156102f657602002820191906000526020600020905b8160009054906101000a900473ffffffffffffffffffffffffffffffffffffffff1673ffffffffffffffffffffffffffffffffffffffff16815260200190600101908083116102ac575b505050505091508080548060200260200160405190810160405280929190818152602001828054801561034857602002820191906000526020600020905b815481526020019060010190808311610334575b5050505050905091509150915091565b60006020528060005260406000206000915090508060000160009054906101000a900473ffffffffffffffffffffffffffffffffffffffff16908060010180546103a190611e32565b80601f01602080910402602001604051908101604052809291908181526020018280546103cd90611e32565b801561041a5780601f106103ef5761010080835404028352916020019161041a565b820191906000526020600020905b8154815290600101906020018083116103fd57829003601f168201915b50505050509080600201805461042f90611e32565b80601f016020809104026020016040519081016040528092919081815260200182805461045b90611e32565b80156104a85780601f1061047d576101008083540402835291602001916104a8565b820191906000526020600020905b81548152906001019060200180831161048b57829003601f168201915b5050505050908060030154908060040154908060050154908060060180546104cf90611e32565b80601f01602080910402602001604051908101604052809291908181526020018280546104fb90611e32565b80156105485780601f1061051d57610100808354040283529160200191610548565b820191906000526020600020905b81548152906001019060200180831161052b57829003601f168201915b5050505050908060090160009054906101000a900460ff16905088565b600080600083815260200190815260200160002090508060000160009054906101000a900473ffffffffffffffffffffffffffffffffffffffff1673ffffffffffffffffffffffffffffffffffffffff163373ffffffffffffffffffffffffffffffffffffffff161461060d576040517f08c379a000000000000000000000000000000000000000000000000000000000815260040161060490611ed5565b60405180910390fd5b60006002811115610621576106206117a6565b5b8160090160009054906101000a900460ff166002811115610645576106446117a6565b5b14610685576040517f08c379a000000000000000000000000000000000000000000000000000000000815260040161067c90611f41565b60405180910390fd5b600281600301546106969190611fbf565b8160050154116106db576040517f08c379a00000000000000000000000000000000000000000000000000000000081526004016106d290612088565b60405180910390fd5b60018160090160006101000a81548160ff02191690836002811115610703576107026117a6565b5b021790555060008160000160009054906101000a900473ffffffffffffffffffffffffffffffffffffffff1673ffffffffffffffffffffffffffffffffffffffff168260050154604051610756906120d9565b60006040518083038185875af1925050503d8060008114610793576040519150601f19603f3d011682016040523d82523d6000602084013e610798565b606091505b50509050806107dc576040517f08c379a00000000000000000000000000000000000000000000000000000000081526004016107d390612160565b60405180910390fd5b505050565b600060028111156107f5576107f46117a6565b5b60008083815260200190815260200160002060090160009054906101000a900460ff16600281111561082a576108296117a6565b5b1461086a576040517f08c379a000000000000000000000000000000000000000000000000000000000815260040161086190611f41565b60405180910390fd5b6000349050600081116108b2576040517f08c379a00000000000000000000000000000000000000000000000000000000081526004016108a9906121f2565b60405180910390fd5b6000806000848152602001908152602001600020905080600701339080600181540180825580915050600190039060005260206000200160009091909190916101000a81548173ffffffffffffffffffffffffffffffffffffffff021916908373ffffffffffffffffffffffffffffffffffffffff160217905550806008018290806001815401808255809150506001900390600052602060002001600090919091909150556109668160050154836112ea565b8160050181905550505050565b600080600083815260200190815260200160002090508060000160009054906101000a900473ffffffffffffffffffffffffffffffffffffffff1673ffffffffffffffffffffffffffffffffffffffff163373ffffffffffffffffffffffffffffffffffffffff1614610a1b576040517f08c379a0000000000000000000000000000000000000000000000000000000008152600401610a1290612284565b60405180910390fd5b6000816005015411610a62576040517f08c379a0000000000000000000000000000000000000000000000000000000008152600401610a59906122f0565b60405180910390fd5b60005b8160070180549050811015610ba0576000826007018281548110610a8c57610a8b612310565b5b9060005260206000200160009054906101000a900473ffffffffffffffffffffffffffffffffffffffff1690506000836008018381548110610ad157610ad0612310565b5b9060005260206000200154905060008273ffffffffffffffffffffffffffffffffffffffff1682604051610b04906120d9565b60006040518083038185875af1925050503d8060008114610b41576040519150601f19603f3d011682016040523d82523d6000602084013e610b46565b606091505b5050905080610b8a576040517f08c379a0000000000000000000000000000000000000000000000000000000008152600401610b819061238b565b60405180910390fd5b5050508080610b98906123ab565b915050610a65565b50806007016000610bb191906113a7565b806008016000610bc191906113c8565b60028160090160006101000a81548160ff02191690836002811115610be957610be86117a6565b5b0217905550600081600501819055505050565b60008060008060015481526020019081526020016000209050428411610c57576040517f08c379a0000000000000000000000000000000000000000000000000000000008152600401610c4e90612465565b60405180910390fd5b60008511610c9a576040517f08c379a0000000000000000000000000000000000000000000000000000000008152600401610c91906124f7565b60405180910390fd5b878160000160006101000a81548173ffffffffffffffffffffffffffffffffffffffff021916908373ffffffffffffffffffffffffffffffffffffffff16021790555086816001019081610cee91906126c3565b5085816002019081610d0091906126c3565b508481600301819055508381600401819055506000816005018190555082816006019081610d2e91906126c3565b5060008160090160006101000a81548160ff02191690836002811115610d5757610d566117a6565b5b0217905550610d6960015460016112ea565b600181905550610d7c6001546001611348565b9150509695505050505050565b6060600060015467ffffffffffffffff811115610da957610da86118e6565b5b604051908082528060200260200182016040528015610de257816020015b610dcf6113e9565b815260200190600190039081610dc75790505b50905060005b600154811015611192576000806000838152602001908152602001600020905080604051806101400160405290816000820160009054906101000a900473ffffffffffffffffffffffffffffffffffffffff1673ffffffffffffffffffffffffffffffffffffffff1673ffffffffffffffffffffffffffffffffffffffff168152602001600182018054610e7b90611e32565b80601f0160208091040260200160405190810160405280929190818152602001828054610ea790611e32565b8015610ef45780601f10610ec957610100808354040283529160200191610ef4565b820191906000526020600020905b815481529060010190602001808311610ed757829003601f168201915b50505050508152602001600282018054610f0d90611e32565b80601f0160208091040260200160405190810160405280929190818152602001828054610f3990611e32565b8015610f865780601f10610f5b57610100808354040283529160200191610f86565b820191906000526020600020905b815481529060010190602001808311610f6957829003601f168201915b50505050508152602001600382015481526020016004820154815260200160058201548152602001600682018054610fbd90611e32565b80601f0160208091040260200160405190810160405280929190818152602001828054610fe990611e32565b80156110365780601f1061100b57610100808354040283529160200191611036565b820191906000526020600020905b81548152906001019060200180831161101957829003601f168201915b50505050508152602001600782018054806020026020016040519081016040528092919081815260200182805480156110c457602002820191906000526020600020905b8160009054906101000a900473ffffffffffffffffffffffffffffffffffffffff1673ffffffffffffffffffffffffffffffffffffffff168152602001906001019080831161107a575b505050505081526020016008820180548060200260200160405190810160405280929190818152602001828054801561111c57602002820191906000526020600020905b815481526020019060010190808311611108575b505050505081526020016009820160009054906101000a900460ff16600281111561114a576111496117a6565b5b600281111561115c5761115b6117a6565b5b8152505083838151811061117357611172612310565b5b602002602001018190525050808061118a906123ab565b915050610de8565b508091505090565b600080600083815260200190815260200160002090508060000160009054906101000a900473ffffffffffffffffffffffffffffffffffffffff1673ffffffffffffffffffffffffffffffffffffffff163373ffffffffffffffffffffffffffffffffffffffff1614611242576040517f08c379a000000000000000000000000000000000000000000000000000000000815260040161123990612807565b60405180910390fd5b600280811115611255576112546117a6565b5b8160090160009054906101000a900460ff166002811115611279576112786117a6565b5b146112b9576040517f08c379a00000000000000000000000000000000000000000000000000000000081526004016112b090612899565b60405180910390fd5b60008160090160006101000a81548160ff021916908360028111156112e1576112e06117a6565b5b02179055505050565b60008082846112f991906128b9565b90508381101561133e576040517f08c379a000000000000000000000000000000000000000000000000000000000815260040161133590612939565b60405180910390fd5b8091505092915050565b60008282111561138d576040517f08c379a0000000000000000000000000000000000000000000000000000000008152600401611384906129a5565b60405180910390fd5b6000828461139b91906129c5565b90508091505092915050565b50805460008255906000526020600020908101906113c59190611464565b50565b50805460008255906000526020600020908101906113e69190611464565b50565b604051806101400160405280600073ffffffffffffffffffffffffffffffffffffffff16815260200160608152602001606081526020016000815260200160008152602001600081526020016060815260200160608152602001606081526020016000600281111561145e5761145d6117a6565b5b81525090565b5b8082111561147d576000816000905550600101611465565b5090565b6000819050919050565b61149481611481565b82525050565b60006020820190506114af600083018461148b565b92915050565b6000604051905090565b600080fd5b600080fd5b6114d281611481565b81146114dd57600080fd5b50565b6000813590506114ef816114c9565b92915050565b60006020828403121561150b5761150a6114bf565b5b6000611519848285016114e0565b91505092915050565b600081519050919050565b600082825260208201905092915050565b6000819050602082019050919050565b600073ffffffffffffffffffffffffffffffffffffffff82169050919050565b60006115798261154e565b9050919050565b6115898161156e565b82525050565b600061159b8383611580565b60208301905092915050565b6000602082019050919050565b60006115bf82611522565b6115c9818561152d565b93506115d48361153e565b8060005b838110156116055781516115ec888261158f565b97506115f7836115a7565b9250506001810190506115d8565b5085935050505092915050565b600081519050919050565b600082825260208201905092915050565b6000819050602082019050919050565b61164781611481565b82525050565b6000611659838361163e565b60208301905092915050565b6000602082019050919050565b600061167d82611612565b611687818561161d565b93506116928361162e565b8060005b838110156116c35781516116aa888261164d565b97506116b583611665565b925050600181019050611696565b5085935050505092915050565b600060408201905081810360008301526116ea81856115b4565b905081810360208301526116fe8184611672565b90509392505050565b6117108161156e565b82525050565b600081519050919050565b600082825260208201905092915050565b60005b83811015611750578082015181840152602081019050611735565b60008484015250505050565b6000601f19601f8301169050919050565b600061177882611716565b6117828185611721565b9350611792818560208601611732565b61179b8161175c565b840191505092915050565b7f4e487b7100000000000000000000000000000000000000000000000000000000600052602160045260246000fd5b600381106117e6576117e56117a6565b5b50565b60008190506117f7826117d5565b919050565b6000611807826117e9565b9050919050565b611817816117fc565b82525050565b600061010082019050611833600083018b611707565b8181036020830152611845818a61176d565b90508181036040830152611859818961176d565b9050611868606083018861148b565b611875608083018761148b565b61188260a083018661148b565b81810360c0830152611894818561176d565b90506118a360e083018461180e565b9998505050505050505050565b6118b98161156e565b81146118c457600080fd5b50565b6000813590506118d6816118b0565b92915050565b600080fd5b600080fd5b7f4e487b7100000000000000000000000000000000000000000000000000000000600052604160045260246000fd5b61191e8261175c565b810181811067ffffffffffffffff8211171561193d5761193c6118e6565b5b80604052505050565b60006119506114b5565b905061195c8282611915565b919050565b600067ffffffffffffffff82111561197c5761197b6118e6565b5b6119858261175c565b9050602081019050919050565b82818337600083830152505050565b60006119b46119af84611961565b611946565b9050828152602081018484840111156119d0576119cf6118e1565b5b6119db848285611992565b509392505050565b600082601f8301126119f8576119f76118dc565b5b8135611a088482602086016119a1565b91505092915050565b60008060008060008060c08789031215611a2e57611a2d6114bf565b5b6000611a3c89828a016118c7565b965050602087013567ffffffffffffffff811115611a5d57611a5c6114c4565b5b611a6989828a016119e3565b955050604087013567ffffffffffffffff811115611a8a57611a896114c4565b5b611a9689828a016119e3565b9450506060611aa789828a016114e0565b9350506080611ab889828a016114e0565b92505060a087013567ffffffffffffffff811115611ad957611ad86114c4565b5b611ae589828a016119e3565b9150509295509295509295565b600081519050919050565b600082825260208201905092915050565b6000819050602082019050919050565b600082825260208201905092915050565b6000611b3a82611716565b611b448185611b1e565b9350611b54818560208601611732565b611b5d8161175c565b840191505092915050565b600082825260208201905092915050565b6000611b8482611522565b611b8e8185611b68565b9350611b998361153e565b8060005b83811015611bca578151611bb1888261158f565b9750611bbc836115a7565b925050600181019050611b9d565b5085935050505092915050565b600082825260208201905092915050565b6000611bf382611612565b611bfd8185611bd7565b9350611c088361162e565b8060005b83811015611c39578151611c20888261164d565b9750611c2b83611665565b925050600181019050611c0c565b5085935050505092915050565b611c4f816117fc565b82525050565b600061014083016000830151611c6e6000860182611580565b5060208301518482036020860152611c868282611b2f565b91505060408301518482036040860152611ca08282611b2f565b9150506060830151611cb5606086018261163e565b506080830151611cc8608086018261163e565b5060a0830151611cdb60a086018261163e565b5060c083015184820360c0860152611cf38282611b2f565b91505060e083015184820360e0860152611d0d8282611b79565b915050610100830151848203610100860152611d298282611be8565b915050610120830151611d40610120860182611c46565b508091505092915050565b6000611d578383611c55565b905092915050565b6000602082019050919050565b6000611d7782611af2565b611d818185611afd565b935083602082028501611d9385611b0e565b8060005b85811015611dcf5784840389528151611db08582611d4b565b9450611dbb83611d5f565b925060208a01995050600181019050611d97565b50829750879550505050505092915050565b60006020820190508181036000830152611dfb8184611d6c565b905092915050565b7f4e487b7100000000000000000000000000000000000000000000000000000000600052602260045260246000fd5b60006002820490506001821680611e4a57607f821691505b602082108103611e5d57611e5c611e03565b5b50919050565b7f4f6e6c79207468652063616d706169676e206f776e65722063616e207769746860008201527f647261772066756e647300000000000000000000000000000000000000000000602082015250565b6000611ebf602a83611721565b9150611eca82611e63565b604082019050919050565b60006020820190508181036000830152611eee81611eb2565b9050919050565b7f43616d706169676e20697320636c6f7365640000000000000000000000000000600082015250565b6000611f2b601283611721565b9150611f3682611ef5565b602082019050919050565b60006020820190508181036000830152611f5a81611f1e565b9050919050565b7f4e487b7100000000000000000000000000000000000000000000000000000000600052601260045260246000fd5b7f4e487b7100000000000000000000000000000000000000000000000000000000600052601160045260246000fd5b6000611fca82611481565b9150611fd583611481565b925082611fe557611fe4611f61565b5b828204905092915050565b7f46756e64732063616e206f6e6c792062652077697468647261776e206966206d60008201527f6f7265207468616e20353025206f66207468652074617267657420697320726560208201527f6163686564000000000000000000000000000000000000000000000000000000604082015250565b6000612072604583611721565b915061207d82611ff0565b606082019050919050565b600060208201905081810360008301526120a181612065565b9050919050565b600081905092915050565b50565b60006120c36000836120a8565b91506120ce826120b3565b600082019050919050565b60006120e4826120b6565b9150819050919050565b7f4661696c656420746f2073656e642066756e647320746f207468652063616d7060008201527f6169676e206f776e657200000000000000000000000000000000000000000000602082015250565b600061214a602a83611721565b9150612155826120ee565b604082019050919050565b600060208201905081810360008301526121798161213d565b9050919050565b7f416d6f756e742073686f756c6420626520706f73697469766520616e64206d6f60008201527f7265207468616e20300000000000000000000000000000000000000000000000602082015250565b60006121dc602983611721565b91506121e782612180565b604082019050919050565b6000602082019050818103600083015261220b816121cf565b9050919050565b7f4f6e6c79207468652063616d706169676e206f776e65722063616e207265667560008201527f6e642066756e6473000000000000000000000000000000000000000000000000602082015250565b600061226e602883611721565b915061227982612212565b604082019050919050565b6000602082019050818103600083015261229d81612261565b9050919050565b7f4e6f2066756e6420746f20726566756e64000000000000000000000000000000600082015250565b60006122da601183611721565b91506122e5826122a4565b602082019050919050565b60006020820190508181036000830152612309816122cd565b9050919050565b7f4e487b7100000000000000000000000000000000000000000000000000000000600052603260045260246000fd5b7f4661696c656420746f20726566756e6420646f6e6f7200000000000000000000600082015250565b6000612375601683611721565b91506123808261233f565b602082019050919050565b600060208201905081810360008301526123a481612368565b9050919050565b60006123b682611481565b91507fffffffffffffffffffffffffffffffffffffffffffffffffffffffffffffffff82036123e8576123e7611f90565b5b600182019050919050565b7f54686520646561646c696e652073686f756c642062652061206461746520696e60008201527f20746865206675747572652e0000000000000000000000000000000000000000602082015250565b600061244f602c83611721565b915061245a826123f3565b604082019050919050565b6000602082019050818103600083015261247e81612442565b9050919050565b7f54617267657420616d6f756e74206d757374206265206772656174657220746860008201527f616e203000000000000000000000000000000000000000000000000000000000602082015250565b60006124e1602483611721565b91506124ec82612485565b604082019050919050565b60006020820190508181036000830152612510816124d4565b9050919050565b60008190508160005260206000209050919050565b60006020601f8301049050919050565b600082821b905092915050565b6000600883026125797fffffffffffffffffffffffffffffffffffffffffffffffffffffffffffffffff8261253c565b612583868361253c565b95508019841693508086168417925050509392505050565b6000819050919050565b60006125c06125bb6125b684611481565b61259b565b611481565b9050919050565b6000819050919050565b6125da836125a5565b6125ee6125e6826125c7565b848454612549565b825550505050565b600090565b6126036125f6565b61260e8184846125d1565b505050565b5b81811015612632576126276000826125fb565b600181019050612614565b5050565b601f8211156126775761264881612517565b6126518461252c565b81016020851015612660578190505b61267461266c8561252c565b830182612613565b50505b505050565b600082821c905092915050565b600061269a6000198460080261267c565b1980831691505092915050565b60006126b38383612689565b9150826002028217905092915050565b6126cc82611716565b67ffffffffffffffff8111156126e5576126e46118e6565b5b6126ef8254611e32565b6126fa828285612636565b600060209050601f83116001811461272d576000841561271b578287015190505b61272585826126a7565b86555061278d565b601f19841661273b86612517565b60005b828110156127635784890151825560018201915060208501945060208101905061273e565b86831015612780578489015161277c601f891682612689565b8355505b6001600288020188555050505b505050505050565b7f4f6e6c79207468652063616d706169676e206f776e65722063616e2072656f7060008201527f656e207468652063616d706169676e0000000000000000000000000000000000602082015250565b60006127f1602f83611721565b91506127fc82612795565b604082019050919050565b60006020820190508181036000830152612820816127e4565b9050919050565b7f4f6e6c7920526566756e64207374617475732063616e2072656f70656e20746860008201527f652063616d706169676e00000000000000000000000000000000000000000000602082015250565b6000612883602a83611721565b915061288e82612827565b604082019050919050565b600060208201905081810360008301526128b281612876565b9050919050565b60006128c482611481565b91506128cf83611481565b92508282019050808211156128e7576128e6611f90565b5b92915050565b7f536166654d6174683a206164646974696f6e206f766572666c6f770000000000600082015250565b6000612923601b83611721565b915061292e826128ed565b602082019050919050565b6000602082019050818103600083015261295281612916565b9050919050565b7f536166654d6174683a207375627472616374696f6e206f766572666c6f770000600082015250565b600061298f601e83611721565b915061299a82612959565b602082019050919050565b600060208201905081810360008301526129be81612982565b9050919050565b60006129d082611481565b91506129db83611481565b92508282039050818111156129f3576129f2611f90565b5b9291505056fea2646970667358221220dd2dcfc4210ef71a844f0a99705b0e46ae92bb37e36de541554218e7d3adc33d64736f6c63430008130033",
  "linkReferences": {},
  "deployedLinkReferences": {}
}