{
  "_format": "hh-sol-artifact-1",
  "contractName": "CrowdFunding",
  "sourceName": "contracts/Crowdfunding.sol",
  "abi": [
    {
      "inputs": [
        {
          "internalType": "uint256",
          "name": "",
          "type": "uint256"
        }
      ],
      "name": "campaigns",
      "outputs": [
        {
          "internalType": "address",
          "name": "owner",
          "type": "address"
        },
        {
          "internalType": "string",
          "name": "title",
          "type": "string"
        },
        {
          "internalType": "string",
          "name": "description",
          "type": "string"
        },
        {
          "internalType": "uint256",
          "name": "target",
          "type": "uint256"
        },
        {
          "internalType": "uint256",
          "name": "deadline",
          "type": "uint256"
        },
        {
          "internalType": "uint256",
          "name": "amountCollected",
          "type": "uint256"
        },
        {
          "internalType": "string",
          "name": "image",
          "type": "string"
        },
        {
          "internalType": "enum CrowdFunding.CampaignStatus",
          "name": "status",
          "type": "uint8"
        }
      ],
      "stateMutability": "view",
      "type": "function"
    },
    {
      "inputs": [
        {
          "internalType": "address",
          "name": "_owner",
          "type": "address"
        },
        {
          "internalType": "string",
          "name": "_title",
          "type": "string"
        },
        {
          "internalType": "string",
          "name": "_description",
          "type": "string"
        },
        {
          "internalType": "uint256",
          "name": "_target",
          "type": "uint256"
        },
        {
          "internalType": "uint256",
          "name": "_deadline",
          "type": "uint256"
        },
        {
          "internalType": "string",
          "name": "_image",
          "type": "string"
        }
      ],
      "name": "createCampaign",
      "outputs": [
        {
          "internalType": "uint256",
          "name": "",
          "type": "uint256"
        }
      ],
      "stateMutability": "nonpayable",
      "type": "function"
    },
    {
      "inputs": [
        {
          "internalType": "uint256",
          "name": "_id",
          "type": "uint256"
        }
      ],
      "name": "donateToCampaign",
      "outputs": [],
      "stateMutability": "payable",
      "type": "function"
    },
    {
      "inputs": [],
      "name": "getCampaigns",
      "outputs": [
        {
          "components": [
            {
              "internalType": "address",
              "name": "owner",
              "type": "address"
            },
            {
              "internalType": "string",
              "name": "title",
              "type": "string"
            },
            {
              "internalType": "string",
              "name": "description",
              "type": "string"
            },
            {
              "internalType": "uint256",
              "name": "target",
              "type": "uint256"
            },
            {
              "internalType": "uint256",
              "name": "deadline",
              "type": "uint256"
            },
            {
              "internalType": "uint256",
              "name": "amountCollected",
              "type": "uint256"
            },
            {
              "internalType": "string",
              "name": "image",
              "type": "string"
            },
            {
              "internalType": "address[]",
              "name": "donators",
              "type": "address[]"
            },
            {
              "internalType": "uint256[]",
              "name": "donations",
              "type": "uint256[]"
            },
            {
              "internalType": "enum CrowdFunding.CampaignStatus",
              "name": "status",
              "type": "uint8"
            }
          ],
          "internalType": "struct CrowdFunding.Campaign[]",
          "name": "",
          "type": "tuple[]"
        }
      ],
      "stateMutability": "view",
      "type": "function"
    },
    {
      "inputs": [
        {
          "internalType": "uint256",
          "name": "_id",
          "type": "uint256"
        }
      ],
      "name": "getDonators",
      "outputs": [
        {
          "internalType": "address[]",
          "name": "",
          "type": "address[]"
        },
        {
          "internalType": "uint256[]",
          "name": "",
          "type": "uint256[]"
        }
      ],
      "stateMutability": "view",
      "type": "function"
    },
    {
      "inputs": [],
      "name": "numberOfCampaigns",
      "outputs": [
        {
          "internalType": "uint256",
          "name": "",
          "type": "uint256"
        }
      ],
      "stateMutability": "view",
      "type": "function"
    },
    {
      "inputs": [
        {
          "internalType": "uint256",
          "name": "_id",
          "type": "uint256"
        }
      ],
      "name": "refundDonors",
      "outputs": [],
      "stateMutability": "nonpayable",
      "type": "function"
    },
    {
      "inputs": [
        {
          "internalType": "uint256",
          "name": "_id",
          "type": "uint256"
        }
      ],
      "name": "reopenCampaingFromRefund",
      "outputs": [],
      "stateMutability": "nonpayable",
      "type": "function"
    },
    {
      "inputs": [
        {
          "internalType": "uint256",
          "name": "_id",
          "type": "uint256"
        }
      ],
      "name": "withdrawFunds",
      "outputs": [],
      "stateMutability": "nonpayable",
      "type": "function"
    },
    {
      "stateMutability": "payable",
      "type": "receive"
    }
  ],
  "bytecode": "0x6080604052600060015534801561001557600080fd5b506117fb806100256000396000f3fe60806040526004361061008a5760003560e01c806342a4fda81161005957806342a4fda814610143578063608bdc08146101565780639943e3a114610176578063a6b0363314610196578063bfd869c2146101b857600080fd5b806307ca140d146100965780630fa91fa9146100bf578063141961bc146100ed578063155dd5ee1461012157600080fd5b3661009157005b600080fd5b3480156100a257600080fd5b506100ac60015481565b6040519081526020015b60405180910390f35b3480156100cb57600080fd5b506100df6100da36600461116c565b6101d8565b6040516100b6929190611185565b3480156100f957600080fd5b5061010d61010836600461116c565b6102a7565b6040516100b6989796959493929190611287565b34801561012d57600080fd5b5061014161013c36600461116c565b61048d565b005b61014161015136600461116c565b6106cd565b34801561016257600080fd5b5061014161017136600461116c565b6107f5565b34801561018257600080fd5b506100ac6101913660046113a6565b610a00565b3480156101a257600080fd5b506101ab610b60565b6040516100b691906114d3565b3480156101c457600080fd5b506101416101d336600461116c565b610ef0565b6000818152602081815260409182902060078101805484518185028101850190955280855260609485949293600801929091849183018282801561024557602002820191906000526020600020905b81546001600160a01b03168152600190910190602001808311610227575b505050505091508080548060200260200160405190810160405280929190818152602001828054801561029757602002820191906000526020600020905b815481526020019060010190808311610283575b5050505050905091509150915091565b600060208190529081526040902080546001820180546001600160a01b0390921692916102d3906115f6565b80601f01602080910402602001604051908101604052809291908181526020018280546102ff906115f6565b801561034c5780601f106103215761010080835404028352916020019161034c565b820191906000526020600020905b81548152906001019060200180831161032f57829003601f168201915b505050505090806002018054610361906115f6565b80601f016020809104026020016040519081016040528092919081815260200182805461038d906115f6565b80156103da5780601f106103af576101008083540402835291602001916103da565b820191906000526020600020905b8154815290600101906020018083116103bd57829003601f168201915b505050505090806003015490806004015490806005015490806006018054610401906115f6565b80601f016020809104026020016040519081016040528092919081815260200182805461042d906115f6565b801561047a5780601f1061044f5761010080835404028352916020019161047a565b820191906000526020600020905b81548152906001019060200180831161045d57829003601f168201915b5050506009909301549192505060ff1688565b600081815260208190526040902080546001600160a01b0316331461050c5760405162461bcd60e51b815260206004820152602a60248201527f4f6e6c79207468652063616d706169676e206f776e65722063616e2077697468604482015269647261772066756e647360b01b60648201526084015b60405180910390fd5b6000600982015460ff1660028111156105275761052761124f565b146105695760405162461bcd60e51b815260206004820152601260248201527110d85b5c185a59db881a5cc818db1bdcd95960721b6044820152606401610503565b6002816003015461057a9190611640565b8160050154116106005760405162461bcd60e51b815260206004820152604560248201527f46756e64732063616e206f6e6c792062652077697468647261776e206966206d60448201527f6f7265207468616e20353025206f6620746865207461726765742069732072656064820152641858da195960da1b608482015260a401610503565b60098101805460ff19166001179055805460058201546040516000926001600160a01b031691908381818185875af1925050503d806000811461065f576040519150601f19603f3d011682016040523d82523d6000602084013e610664565b606091505b50509050806106c85760405162461bcd60e51b815260206004820152602a60248201527f4661696c656420746f2073656e642066756e647320746f207468652063616d7060448201526930b4b3b71037bbb732b960b11b6064820152608401610503565b505050565b60008181526020819052604081206009015460ff1660028111156106f3576106f361124f565b146107355760405162461bcd60e51b815260206004820152601260248201527110d85b5c185a59db881a5cc818db1bdcd95960721b6044820152606401610503565b34806107955760405162461bcd60e51b815260206004820152602960248201527f416d6f756e742073686f756c6420626520706f73697469766520616e64206d6f60448201526807265207468616e20360bc1b6064820152608401610503565b6000828152602081815260408220600781018054600181810183559185528385200180546001600160a01b0319163317905560088201805491820181558452919092200182905560058101546107eb9083610ff8565b6005909101555050565b600081815260208190526040902080546001600160a01b0316331461086d5760405162461bcd60e51b815260206004820152602860248201527f4f6e6c79207468652063616d706169676e206f776e65722063616e20726566756044820152676e642066756e647360c01b6064820152608401610503565b60008160050154116108b55760405162461bcd60e51b8152602060048201526011602482015270139bc8199d5b99081d1bc81c99599d5b99607a1b6044820152606401610503565b60005b60078201548110156109c95760008260070182815481106108db576108db611662565b60009182526020822001546008850180546001600160a01b039092169350908490811061090a5761090a611662565b906000526020600020015490506000826001600160a01b03168260405160006040518083038185875af1925050503d8060008114610964576040519150601f19603f3d011682016040523d82523d6000602084013e610969565b606091505b50509050806109b35760405162461bcd60e51b81526020600482015260166024820152752330b4b632b2103a37903932b33ab732103237b737b960511b6044820152606401610503565b50505080806109c190611678565b9150506108b8565b506109d86007820160006110c6565b6109e66008820160006110c6565b60098101805460ff19166002179055600060059091015550565b6001546000908152602081905260408120428411610a755760405162461bcd60e51b815260206004820152602c60248201527f54686520646561646c696e652073686f756c642062652061206461746520696e60448201526b103a343290333aba3ab9329760a11b6064820152608401610503565b60008511610ad15760405162461bcd60e51b8152602060048201526024808201527f54617267657420616d6f756e74206d75737420626520677265617465722074686044820152630616e20360e41b6064820152608401610503565b80546001600160a01b0319166001600160a01b03891617815560018101610af888826116df565b5060028101610b0787826116df565b5060038101859055600481018490556000600582015560068101610b2b84826116df565b5060098101805460ff1916905560018054610b4591610ff8565b6001818155610b549190611060565b98975050505050505050565b6060600060015467ffffffffffffffff811115610b7f57610b7f611303565b604051908082528060200260200182016040528015610bb857816020015b610ba56110e7565b815260200190600190039081610b9d5790505b50905060005b600154811015610eea57600081815260208181526040918290208251610140810190935280546001600160a01b0316835260018101805491939284929084019190610c08906115f6565b80601f0160208091040260200160405190810160405280929190818152602001828054610c34906115f6565b8015610c815780601f10610c5657610100808354040283529160200191610c81565b820191906000526020600020905b815481529060010190602001808311610c6457829003601f168201915b50505050508152602001600282018054610c9a906115f6565b80601f0160208091040260200160405190810160405280929190818152602001828054610cc6906115f6565b8015610d135780601f10610ce857610100808354040283529160200191610d13565b820191906000526020600020905b815481529060010190602001808311610cf657829003601f168201915b50505050508152602001600382015481526020016004820154815260200160058201548152602001600682018054610d4a906115f6565b80601f0160208091040260200160405190810160405280929190818152602001828054610d76906115f6565b8015610dc35780601f10610d9857610100808354040283529160200191610dc3565b820191906000526020600020905b815481529060010190602001808311610da657829003601f168201915b5050505050815260200160078201805480602002602001604051908101604052809291908181526020018280548015610e2557602002820191906000526020600020905b81546001600160a01b03168152600190910190602001808311610e07575b5050505050815260200160088201805480602002602001604051908101604052809291908181526020018280548015610e7d57602002820191906000526020600020905b815481526020019060010190808311610e69575b5050509183525050600982015460209091019060ff166002811115610ea457610ea461124f565b6002811115610eb557610eb561124f565b81525050838381518110610ecb57610ecb611662565b6020026020010181905250508080610ee290611678565b915050610bbe565b50919050565b600081815260208190526040902080546001600160a01b03163314610f6f5760405162461bcd60e51b815260206004820152602f60248201527f4f6e6c79207468652063616d706169676e206f776e65722063616e2072656f7060448201526e32b7103a34329031b0b6b830b4b3b760891b6064820152608401610503565b6002600982015460ff166002811115610f8a57610f8a61124f565b14610fea5760405162461bcd60e51b815260206004820152602a60248201527f4f6e6c7920526566756e64207374617475732063616e2072656f70656e207468604482015269329031b0b6b830b4b3b760b11b6064820152608401610503565b600901805460ff1916905550565b600080611005838561179f565b9050838110156110575760405162461bcd60e51b815260206004820152601b60248201527f536166654d6174683a206164646974696f6e206f766572666c6f7700000000006044820152606401610503565b90505b92915050565b6000828211156110b25760405162461bcd60e51b815260206004820152601e60248201527f536166654d6174683a207375627472616374696f6e206f766572666c6f7700006044820152606401610503565b60006110be83856117b2565b949350505050565b50805460008255906000526020600020908101906110e49190611153565b50565b60405180610140016040528060006001600160a01b0316815260200160608152602001606081526020016000815260200160008152602001600081526020016060815260200160608152602001606081526020016000600281111561114e5761114e61124f565b905290565b5b808211156111685760008155600101611154565b5090565b60006020828403121561117e57600080fd5b5035919050565b604080825283519082018190526000906020906060840190828701845b828110156111c75781516001600160a01b0316845292840192908401906001016111a2565b5050508381038285015284518082528583019183019060005b818110156111fc578351835292840192918401916001016111e0565b5090979650505050505050565b6000815180845260005b8181101561122f57602081850181015186830182015201611213565b506000602082860101526020601f19601f83011685010191505092915050565b634e487b7160e01b600052602160045260246000fd5b6003811061128357634e487b7160e01b600052602160045260246000fd5b9052565b6001600160a01b0389168152610100602082018190526000906112ac8382018b611209565b905082810360408401526112c0818a611209565b90508760608401528660808401528560a084015282810360c08401526112e68186611209565b9150506112f660e0830184611265565b9998505050505050505050565b634e487b7160e01b600052604160045260246000fd5b600082601f83011261132a57600080fd5b813567ffffffffffffffff8082111561134557611345611303565b604051601f8301601f19908116603f0116810190828211818310171561136d5761136d611303565b8160405283815286602085880101111561138657600080fd5b836020870160208301376000602085830101528094505050505092915050565b60008060008060008060c087890312156113bf57600080fd5b86356001600160a01b03811681146113d657600080fd5b9550602087013567ffffffffffffffff808211156113f357600080fd5b6113ff8a838b01611319565b9650604089013591508082111561141557600080fd5b6114218a838b01611319565b9550606089013594506080890135935060a089013591508082111561144557600080fd5b5061145289828a01611319565b9150509295509295509295565b600081518084526020808501945080840160005b838110156114985781516001600160a01b031687529582019590820190600101611473565b509495945050505050565b600081518084526020808501945080840160005b83811015611498578151875295820195908201906001016114b7565b60006020808301818452808551808352604092508286019150828160051b87010184880160005b838110156115e857888303603f19018552815180516001600160a01b0316845261014088820151818a87015261153282870182611209565b915050878201518582038987015261154a8282611209565b606084810151908801526080808501519088015260a0808501519088015260c080850151888303828a015291935091506115848382611209565b9250505060e0808301518683038288015261159f838261145f565b9250505061010080830151868303828801526115bb83826114a3565b925050506101208083015192506115d481870184611265565b5095880195935050908601906001016114fa565b509098975050505050505050565b600181811c9082168061160a57607f821691505b602082108103610eea57634e487b7160e01b600052602260045260246000fd5b634e487b7160e01b600052601160045260246000fd5b60008261165d57634e487b7160e01b600052601260045260246000fd5b500490565b634e487b7160e01b600052603260045260246000fd5b60006001820161168a5761168a61162a565b5060010190565b601f8211156106c857600081815260208120601f850160051c810160208610156116b85750805b601f850160051c820191505b818110156116d7578281556001016116c4565b505050505050565b815167ffffffffffffffff8111156116f9576116f9611303565b61170d8161170784546115f6565b84611691565b602080601f831160018114611742576000841561172a5750858301515b600019600386901b1c1916600185901b1785556116d7565b600085815260208120601f198616915b8281101561177157888601518255948401946001909101908401611752565b508582101561178f5787850151600019600388901b60f8161c191681555b5050505050600190811b01905550565b8082018082111561105a5761105a61162a565b8181038181111561105a5761105a61162a56fea26469706673582212203979f93509f73da6e7827611e3ef15b44af9c797ff78339258e8ab6b6b7ef6f264736f6c63430008110033",
  "linkReferences": {},
  "deployedLinkReferences": {}
}